{
  "_format": "hh-sol-artifact-1",
  "contractName": "BondToEarnTreasury",
  "sourceName": "contracts/Treasury.sol",
  "abi": [
    {
      "inputs": [
        {
          "internalType": "address",
          "name": "_BTE",
          "type": "address"
        },
        {
          "internalType": "uint256",
          "name": "_blocksNeededForQueue",
          "type": "uint256"
        }
      ],
      "stateMutability": "nonpayable",
      "type": "constructor"
    },
    {
      "anonymous": false,
      "inputs": [
        {
          "indexed": true,
          "internalType": "enum BondToEarnTreasury.MANAGING",
          "name": "managing",
          "type": "uint8"
        },
        {
          "indexed": false,
          "internalType": "address",
          "name": "activated",
          "type": "address"
        },
        {
          "indexed": false,
          "internalType": "bool",
          "name": "result",
          "type": "bool"
        }
      ],
      "name": "ChangeActivated",
      "type": "event"
    },
    {
      "anonymous": false,
      "inputs": [
        {
          "indexed": true,
          "internalType": "enum BondToEarnTreasury.MANAGING",
          "name": "managing",
          "type": "uint8"
        },
        {
          "indexed": false,
          "internalType": "address",
          "name": "queued",
          "type": "address"
        }
      ],
      "name": "ChangeQueued",
      "type": "event"
    },
    {
      "anonymous": false,
      "inputs": [
        {
          "indexed": true,
          "internalType": "address",
          "name": "debtor",
          "type": "address"
        },
        {
          "indexed": true,
          "internalType": "address",
          "name": "token",
          "type": "address"
        },
        {
          "indexed": false,
          "internalType": "uint256",
          "name": "amount",
          "type": "uint256"
        },
        {
          "indexed": false,
          "internalType": "uint256",
          "name": "value",
          "type": "uint256"
        }
      ],
      "name": "CreateDebt",
      "type": "event"
    },
    {
      "anonymous": false,
      "inputs": [
        {
          "indexed": true,
          "internalType": "address",
          "name": "token",
          "type": "address"
        },
        {
          "indexed": false,
          "internalType": "uint256",
          "name": "amount",
          "type": "uint256"
        },
        {
          "indexed": false,
          "internalType": "uint256",
          "name": "value",
          "type": "uint256"
        }
      ],
      "name": "Deposit",
      "type": "event"
    },
    {
      "anonymous": false,
      "inputs": [
        {
          "indexed": true,
          "internalType": "address",
          "name": "previousOwner",
          "type": "address"
        },
        {
          "indexed": true,
          "internalType": "address",
          "name": "newOwner",
          "type": "address"
        }
      ],
      "name": "OwnershipPulled",
      "type": "event"
    },
    {
      "anonymous": false,
      "inputs": [
        {
          "indexed": true,
          "internalType": "address",
          "name": "previousOwner",
          "type": "address"
        },
        {
          "indexed": true,
          "internalType": "address",
          "name": "newOwner",
          "type": "address"
        }
      ],
      "name": "OwnershipPushed",
      "type": "event"
    },
    {
      "anonymous": false,
      "inputs": [
        {
          "indexed": true,
          "internalType": "address",
          "name": "debtor",
          "type": "address"
        },
        {
          "indexed": true,
          "internalType": "address",
          "name": "token",
          "type": "address"
        },
        {
          "indexed": false,
          "internalType": "uint256",
          "name": "amount",
          "type": "uint256"
        },
        {
          "indexed": false,
          "internalType": "uint256",
          "name": "value",
          "type": "uint256"
        }
      ],
      "name": "RepayDebt",
      "type": "event"
    },
    {
      "anonymous": false,
      "inputs": [
        {
          "indexed": true,
          "internalType": "uint256",
          "name": "totalReserves",
          "type": "uint256"
        }
      ],
      "name": "ReservesAudited",
      "type": "event"
    },
    {
      "anonymous": false,
      "inputs": [
        {
          "indexed": true,
          "internalType": "address",
          "name": "token",
          "type": "address"
        },
        {
          "indexed": false,
          "internalType": "uint256",
          "name": "amount",
          "type": "uint256"
        }
      ],
      "name": "ReservesManaged",
      "type": "event"
    },
    {
      "anonymous": false,
      "inputs": [
        {
          "indexed": true,
          "internalType": "uint256",
          "name": "totalReserves",
          "type": "uint256"
        }
      ],
      "name": "ReservesUpdated",
      "type": "event"
    },
    {
      "anonymous": false,
      "inputs": [
        {
          "indexed": true,
          "internalType": "address",
          "name": "caller",
          "type": "address"
        },
        {
          "indexed": true,
          "internalType": "address",
          "name": "recipient",
          "type": "address"
        },
        {
          "indexed": false,
          "internalType": "uint256",
          "name": "amount",
          "type": "uint256"
        }
      ],
      "name": "RewardsMinted",
      "type": "event"
    },
    {
      "anonymous": false,
      "inputs": [
        {
          "indexed": true,
          "internalType": "address",
          "name": "token",
          "type": "address"
        },
        {
          "indexed": false,
          "internalType": "uint256",
          "name": "amount",
          "type": "uint256"
        },
        {
          "indexed": false,
          "internalType": "uint256",
          "name": "value",
          "type": "uint256"
        }
      ],
      "name": "Withdrawal",
      "type": "event"
    },
    {
      "inputs": [],
      "name": "BTE",
      "outputs": [
        {
          "internalType": "address",
          "name": "",
          "type": "address"
        }
      ],
      "stateMutability": "view",
      "type": "function"
    },
    {
      "inputs": [
        {
          "internalType": "address",
          "name": "",
          "type": "address"
        }
      ],
      "name": "LiquidityDepositorQueue",
      "outputs": [
        {
          "internalType": "uint256",
          "name": "",
          "type": "uint256"
        }
      ],
      "stateMutability": "view",
      "type": "function"
    },
    {
      "inputs": [
        {
          "internalType": "address",
          "name": "",
          "type": "address"
        }
      ],
      "name": "LiquidityManagerQueue",
      "outputs": [
        {
          "internalType": "uint256",
          "name": "",
          "type": "uint256"
        }
      ],
      "stateMutability": "view",
      "type": "function"
    },
    {
      "inputs": [
        {
          "internalType": "address",
          "name": "",
          "type": "address"
        }
      ],
      "name": "LiquidityTokenQueue",
      "outputs": [
        {
          "internalType": "uint256",
          "name": "",
          "type": "uint256"
        }
      ],
      "stateMutability": "view",
      "type": "function"
    },
    {
      "inputs": [
        {
          "internalType": "address",
          "name": "",
          "type": "address"
        }
      ],
      "name": "ReserveManagerQueue",
      "outputs": [
        {
          "internalType": "uint256",
          "name": "",
          "type": "uint256"
        }
      ],
      "stateMutability": "view",
      "type": "function"
    },
    {
      "inputs": [],
      "name": "auditReserves",
      "outputs": [],
      "stateMutability": "nonpayable",
      "type": "function"
    },
    {
      "inputs": [],
      "name": "blocksNeededForQueue",
      "outputs": [
        {
          "internalType": "uint256",
          "name": "",
          "type": "uint256"
        }
      ],
      "stateMutability": "view",
      "type": "function"
    },
    {
      "inputs": [
        {
          "internalType": "address",
          "name": "",
          "type": "address"
        }
      ],
      "name": "bondCalculator",
      "outputs": [
        {
          "internalType": "address",
          "name": "",
          "type": "address"
        }
      ],
      "stateMutability": "view",
      "type": "function"
    },
    {
      "inputs": [
        {
          "internalType": "address",
          "name": "",
          "type": "address"
        }
      ],
      "name": "debtorBalance",
      "outputs": [
        {
          "internalType": "uint256",
          "name": "",
          "type": "uint256"
        }
      ],
      "stateMutability": "view",
      "type": "function"
    },
    {
      "inputs": [
        {
          "internalType": "address",
          "name": "",
          "type": "address"
        }
      ],
      "name": "debtorQueue",
      "outputs": [
        {
          "internalType": "uint256",
          "name": "",
          "type": "uint256"
        }
      ],
      "stateMutability": "view",
      "type": "function"
    },
    {
      "inputs": [
        {
          "internalType": "uint256",
          "name": "",
          "type": "uint256"
        }
      ],
      "name": "debtors",
      "outputs": [
        {
          "internalType": "address",
          "name": "",
          "type": "address"
        }
      ],
      "stateMutability": "view",
      "type": "function"
    },
    {
      "inputs": [
        {
          "internalType": "uint256",
          "name": "_amount",
          "type": "uint256"
        },
        {
          "internalType": "address",
          "name": "_token",
          "type": "address"
        },
        {
          "internalType": "uint256",
          "name": "_profit",
          "type": "uint256"
        }
      ],
      "name": "deposit",
      "outputs": [
        {
          "internalType": "uint256",
          "name": "send_",
          "type": "uint256"
        }
      ],
      "stateMutability": "nonpayable",
      "type": "function"
    },
    {
      "inputs": [],
      "name": "excessReserves",
      "outputs": [
        {
          "internalType": "uint256",
          "name": "",
          "type": "uint256"
        }
      ],
      "stateMutability": "view",
      "type": "function"
    },
    {
      "inputs": [
        {
          "internalType": "uint256",
          "name": "_amount",
          "type": "uint256"
        },
        {
          "internalType": "address",
          "name": "_token",
          "type": "address"
        }
      ],
      "name": "incurDebt",
      "outputs": [],
      "stateMutability": "nonpayable",
      "type": "function"
    },
    {
      "inputs": [
        {
          "internalType": "address",
          "name": "",
          "type": "address"
        }
      ],
      "name": "isDebtor",
      "outputs": [
        {
          "internalType": "bool",
          "name": "",
          "type": "bool"
        }
      ],
      "stateMutability": "view",
      "type": "function"
    },
    {
      "inputs": [
        {
          "internalType": "address",
          "name": "",
          "type": "address"
        }
      ],
      "name": "isLiquidityDepositor",
      "outputs": [
        {
          "internalType": "bool",
          "name": "",
          "type": "bool"
        }
      ],
      "stateMutability": "view",
      "type": "function"
    },
    {
      "inputs": [
        {
          "internalType": "address",
          "name": "",
          "type": "address"
        }
      ],
      "name": "isLiquidityManager",
      "outputs": [
        {
          "internalType": "bool",
          "name": "",
          "type": "bool"
        }
      ],
      "stateMutability": "view",
      "type": "function"
    },
    {
      "inputs": [
        {
          "internalType": "address",
          "name": "",
          "type": "address"
        }
      ],
      "name": "isLiquidityToken",
      "outputs": [
        {
          "internalType": "bool",
          "name": "",
          "type": "bool"
        }
      ],
      "stateMutability": "view",
      "type": "function"
    },
    {
      "inputs": [
        {
          "internalType": "address",
          "name": "",
          "type": "address"
        }
      ],
      "name": "isReserveDepositor",
      "outputs": [
        {
          "internalType": "bool",
          "name": "",
          "type": "bool"
        }
      ],
      "stateMutability": "view",
      "type": "function"
    },
    {
      "inputs": [
        {
          "internalType": "address",
          "name": "",
          "type": "address"
        }
      ],
      "name": "isReserveManager",
      "outputs": [
        {
          "internalType": "bool",
          "name": "",
          "type": "bool"
        }
      ],
      "stateMutability": "view",
      "type": "function"
    },
    {
      "inputs": [
        {
          "internalType": "address",
          "name": "",
          "type": "address"
        }
      ],
      "name": "isReserveSpender",
      "outputs": [
        {
          "internalType": "bool",
          "name": "",
          "type": "bool"
        }
      ],
      "stateMutability": "view",
      "type": "function"
    },
    {
      "inputs": [
        {
          "internalType": "address",
          "name": "",
          "type": "address"
        }
      ],
      "name": "isReserveToken",
      "outputs": [
        {
          "internalType": "bool",
          "name": "",
          "type": "bool"
        }
      ],
      "stateMutability": "view",
      "type": "function"
    },
    {
      "inputs": [
        {
          "internalType": "address",
          "name": "",
          "type": "address"
        }
      ],
      "name": "isRewardManager",
      "outputs": [
        {
          "internalType": "bool",
          "name": "",
          "type": "bool"
        }
      ],
      "stateMutability": "view",
      "type": "function"
    },
    {
      "inputs": [
        {
          "internalType": "uint256",
          "name": "",
          "type": "uint256"
        }
      ],
      "name": "liquidityDepositors",
      "outputs": [
        {
          "internalType": "address",
          "name": "",
          "type": "address"
        }
      ],
      "stateMutability": "view",
      "type": "function"
    },
    {
      "inputs": [
        {
          "internalType": "uint256",
          "name": "",
          "type": "uint256"
        }
      ],
      "name": "liquidityManagers",
      "outputs": [
        {
          "internalType": "address",
          "name": "",
          "type": "address"
        }
      ],
      "stateMutability": "view",
      "type": "function"
    },
    {
      "inputs": [
        {
          "internalType": "uint256",
          "name": "",
          "type": "uint256"
        }
      ],
      "name": "liquidityTokens",
      "outputs": [
        {
          "internalType": "address",
          "name": "",
          "type": "address"
        }
      ],
      "stateMutability": "view",
      "type": "function"
    },
    {
      "inputs": [
        {
          "internalType": "address",
          "name": "_token",
          "type": "address"
        },
        {
          "internalType": "uint256",
          "name": "_amount",
          "type": "uint256"
        }
      ],
      "name": "manage",
      "outputs": [],
      "stateMutability": "nonpayable",
      "type": "function"
    },
    {
      "inputs": [],
      "name": "manager",
      "outputs": [
        {
          "internalType": "address",
          "name": "",
          "type": "address"
        }
      ],
      "stateMutability": "view",
      "type": "function"
    },
    {
      "inputs": [
        {
          "internalType": "address",
          "name": "_recipient",
          "type": "address"
        },
        {
          "internalType": "uint256",
          "name": "_amount",
          "type": "uint256"
        }
      ],
      "name": "mintRewards",
      "outputs": [],
      "stateMutability": "nonpayable",
      "type": "function"
    },
    {
      "inputs": [],
      "name": "pullManagement",
      "outputs": [],
      "stateMutability": "nonpayable",
      "type": "function"
    },
    {
      "inputs": [
        {
          "internalType": "address",
          "name": "newOwner_",
          "type": "address"
        }
      ],
      "name": "pushManagement",
      "outputs": [],
      "stateMutability": "nonpayable",
      "type": "function"
    },
    {
      "inputs": [
        {
          "internalType": "enum BondToEarnTreasury.MANAGING",
          "name": "_managing",
          "type": "uint8"
        },
        {
          "internalType": "address",
          "name": "_address",
          "type": "address"
        }
      ],
      "name": "queue",
      "outputs": [
        {
          "internalType": "bool",
          "name": "",
          "type": "bool"
        }
      ],
      "stateMutability": "nonpayable",
      "type": "function"
    },
    {
      "inputs": [],
      "name": "renounceManagement",
      "outputs": [],
      "stateMutability": "nonpayable",
      "type": "function"
    },
    {
      "inputs": [
        {
          "internalType": "uint256",
          "name": "_amount",
          "type": "uint256"
        }
      ],
      "name": "repayDebtWithBTE",
      "outputs": [],
      "stateMutability": "nonpayable",
      "type": "function"
    },
    {
      "inputs": [
        {
          "internalType": "uint256",
          "name": "_amount",
          "type": "uint256"
        },
        {
          "internalType": "address",
          "name": "_token",
          "type": "address"
        }
      ],
      "name": "repayDebtWithReserve",
      "outputs": [],
      "stateMutability": "nonpayable",
      "type": "function"
    },
    {
      "inputs": [
        {
          "internalType": "address",
          "name": "",
          "type": "address"
        }
      ],
      "name": "reserveDepositorQueue",
      "outputs": [
        {
          "internalType": "uint256",
          "name": "",
          "type": "uint256"
        }
      ],
      "stateMutability": "view",
      "type": "function"
    },
    {
      "inputs": [
        {
          "internalType": "uint256",
          "name": "",
          "type": "uint256"
        }
      ],
      "name": "reserveDepositors",
      "outputs": [
        {
          "internalType": "address",
          "name": "",
          "type": "address"
        }
      ],
      "stateMutability": "view",
      "type": "function"
    },
    {
      "inputs": [
        {
          "internalType": "uint256",
          "name": "",
          "type": "uint256"
        }
      ],
      "name": "reserveManagers",
      "outputs": [
        {
          "internalType": "address",
          "name": "",
          "type": "address"
        }
      ],
      "stateMutability": "view",
      "type": "function"
    },
    {
      "inputs": [
        {
          "internalType": "address",
          "name": "",
          "type": "address"
        }
      ],
      "name": "reserveSpenderQueue",
      "outputs": [
        {
          "internalType": "uint256",
          "name": "",
          "type": "uint256"
        }
      ],
      "stateMutability": "view",
      "type": "function"
    },
    {
      "inputs": [
        {
          "internalType": "uint256",
          "name": "",
          "type": "uint256"
        }
      ],
      "name": "reserveSpenders",
      "outputs": [
        {
          "internalType": "address",
          "name": "",
          "type": "address"
        }
      ],
      "stateMutability": "view",
      "type": "function"
    },
    {
      "inputs": [
        {
          "internalType": "address",
          "name": "",
          "type": "address"
        }
      ],
      "name": "reserveTokenQueue",
      "outputs": [
        {
          "internalType": "uint256",
          "name": "",
          "type": "uint256"
        }
      ],
      "stateMutability": "view",
      "type": "function"
    },
    {
      "inputs": [
        {
          "internalType": "uint256",
          "name": "",
          "type": "uint256"
        }
      ],
      "name": "reserveTokens",
      "outputs": [
        {
          "internalType": "address",
          "name": "",
          "type": "address"
        }
      ],
      "stateMutability": "view",
      "type": "function"
    },
    {
      "inputs": [
        {
          "internalType": "address",
          "name": "",
          "type": "address"
        }
      ],
      "name": "rewardManagerQueue",
      "outputs": [
        {
          "internalType": "uint256",
          "name": "",
          "type": "uint256"
        }
      ],
      "stateMutability": "view",
      "type": "function"
    },
    {
      "inputs": [
        {
          "internalType": "uint256",
          "name": "",
          "type": "uint256"
        }
      ],
      "name": "rewardManagers",
      "outputs": [
        {
          "internalType": "address",
          "name": "",
          "type": "address"
        }
      ],
      "stateMutability": "view",
      "type": "function"
    },
    {
      "inputs": [],
      "name": "sBTE",
      "outputs": [
        {
          "internalType": "address",
          "name": "",
          "type": "address"
        }
      ],
      "stateMutability": "view",
      "type": "function"
    },
    {
      "inputs": [],
      "name": "sBTEQueue",
      "outputs": [
        {
          "internalType": "uint256",
          "name": "",
          "type": "uint256"
        }
      ],
      "stateMutability": "view",
      "type": "function"
    },
    {
      "inputs": [
        {
          "internalType": "enum BondToEarnTreasury.MANAGING",
          "name": "_managing",
          "type": "uint8"
        },
        {
          "internalType": "address",
          "name": "_address",
          "type": "address"
        },
        {
          "internalType": "address",
          "name": "_calculator",
          "type": "address"
        }
      ],
      "name": "toggle",
      "outputs": [
        {
          "internalType": "bool",
          "name": "",
          "type": "bool"
        }
      ],
      "stateMutability": "nonpayable",
      "type": "function"
    },
    {
      "inputs": [],
      "name": "totalDebt",
      "outputs": [
        {
          "internalType": "uint256",
          "name": "",
          "type": "uint256"
        }
      ],
      "stateMutability": "view",
      "type": "function"
    },
    {
      "inputs": [],
      "name": "totalReserves",
      "outputs": [
        {
          "internalType": "uint256",
          "name": "",
          "type": "uint256"
        }
      ],
      "stateMutability": "view",
      "type": "function"
    },
    {
      "inputs": [
        {
          "internalType": "address",
          "name": "_token",
          "type": "address"
        },
        {
          "internalType": "uint256",
          "name": "_amount",
          "type": "uint256"
        }
      ],
      "name": "valueOf",
      "outputs": [
        {
          "internalType": "uint256",
          "name": "value_",
          "type": "uint256"
        }
      ],
      "stateMutability": "view",
      "type": "function"
    },
    {
      "inputs": [
        {
          "internalType": "uint256",
          "name": "_amount",
          "type": "uint256"
        },
        {
          "internalType": "address",
          "name": "_token",
          "type": "address"
        }
      ],
      "name": "withdraw",
      "outputs": [],
      "stateMutability": "nonpayable",
      "type": "function"
    }
  ],
  "bytecode": "0x60c06040523480156200001157600080fd5b506040516200455638038062004556833981810160405260408110156200003757600080fd5b508051602090910151600080546001600160a01b03191633178082556040516001600160a01b039190911691907fea8258f2d9ddb679928cf34b78cf645b7feda9acc828e4dd82d014eaae270eba908290a36001600160a01b0382166200009d57600080fd5b606082901b6001600160601b03191660805260a08190526001600160a01b039091169061442362000133600039806124a552806127af5280612818528061288152806128ec528061295e52806129c75280612a325280612a9d5280612b065280612b6f525080610cab52806111af52806117435280611ed6528061200852806123345280612cf65280612db752506144236000f3fe608060405234801561001057600080fd5b50600436106103405760003560e01c80638f59c727116101bd578063d031370b116100f9578063ee4e19a1116100a2578063fbfd393b1161007c578063fbfd393b14610ab8578063fc7b9c1814610afc578063fd1ec01014610b04578063fff9ee8714610b2157610340565b8063ee4e19a114610a35578063f3ef1e0614610a68578063fb93958814610a8557610340565b8063df89b344116100d3578063df89b34414610993578063e83afee3146109c6578063ebd83cd814610a0257610340565b8063d031370b14610935578063d07f390f14610952578063d796ffb81461095a57610340565b8063ab319c9a11610166578063b5b1d56011610140578063b5b1d56014610873578063bc157ac114610890578063c24ad43e146108cf578063cd85641a1461090257610340565b8063ab319c9a14610805578063b1bd38b014610838578063b23b404b1461086b57610340565b8063932cc8c311610197578063932cc8c31461076c578063a1210a2d1461079f578063a569e571146107d257610340565b80638f59c727146107145780638f6a7b57146107475780638f840ddd1461076457610340565b806346f68ee91161028c5780636b5e40a711610235578063788c6c011161020f578063788c6c0114610689578063823b494b146106bc578063869871bf146106c457806387d67dff146106e157610340565b80636b5e40a71461064757806370a0502a146106645780637646d2481461068157610340565b80635a96ac0a116102665780635a96ac0a146105d357806368c31dd5146105db5780636a20de921461060e57610340565b806346f68ee914610565578063481c6a75146105985780634e83423c146105a057610340565b8063124154ca116102ee5780631eec5a9a116102c85780631eec5a9a146105075780632b7ce50014610540578063437f79121461054857610340565b8063124154ca1461045457806312422d231461049b5780631af4da70146104d457610340565b8063094a86511161031f578063094a8651146103ce5780630b0eee30146104135780630c3513a81461044c57610340565b8062f714ce146103455780630619aff114610380578063089208d8146103c6575b600080fd5b61037e6004803603604081101561035b57600080fd5b508035906020013573ffffffffffffffffffffffffffffffffffffffff16610b54565b005b61039d6004803603602081101561039657600080fd5b5035610e04565b6040805173ffffffffffffffffffffffffffffffffffffffff9092168252519081900360200190f35b61037e610e3b565b610401600480360360208110156103e457600080fd5b503573ffffffffffffffffffffffffffffffffffffffff16610f30565b60408051918252519081900360200190f35b61037e6004803603604081101561042957600080fd5b5073ffffffffffffffffffffffffffffffffffffffff8135169060200135610f42565b6104016111a2565b6104876004803603602081101561046a57600080fd5b503573ffffffffffffffffffffffffffffffffffffffff16611253565b604080519115158252519081900360200190f35b61037e600480360360408110156104b157600080fd5b508035906020013573ffffffffffffffffffffffffffffffffffffffff16611268565b61039d600480360360208110156104ea57600080fd5b503573ffffffffffffffffffffffffffffffffffffffff1661162b565b6104016004803603604081101561051d57600080fd5b5073ffffffffffffffffffffffffffffffffffffffff8135169060200135611653565b61037e6118ba565b61039d6004803603602081101561055e57600080fd5b5035611b08565b61037e6004803603602081101561057b57600080fd5b503573ffffffffffffffffffffffffffffffffffffffff16611b18565b61039d611c97565b610487600480360360208110156105b657600080fd5b503573ffffffffffffffffffffffffffffffffffffffff16611cb3565b61037e611cc8565b610487600480360360208110156105f157600080fd5b503573ffffffffffffffffffffffffffffffffffffffff16611dcb565b61037e6004803603604081101561062457600080fd5b5073ffffffffffffffffffffffffffffffffffffffff8135169060200135611de0565b61039d6004803603602081101561065d57600080fd5b5035611fce565b61039d6004803603602081101561067a57600080fd5b5035611fde565b610401611fee565b6104016004803603602081101561069f57600080fd5b503573ffffffffffffffffffffffffffffffffffffffff16611ff4565b61039d612006565b61039d600480360360208110156106da57600080fd5b503561202a565b610487600480360360208110156106f757600080fd5b503573ffffffffffffffffffffffffffffffffffffffff1661203a565b6104016004803603602081101561072a57600080fd5b503573ffffffffffffffffffffffffffffffffffffffff1661204f565b61039d6004803603602081101561075d57600080fd5b5035612061565b610401612071565b6104016004803603602081101561078257600080fd5b503573ffffffffffffffffffffffffffffffffffffffff16612077565b610487600480360360208110156107b557600080fd5b503573ffffffffffffffffffffffffffffffffffffffff16612089565b610487600480360360208110156107e857600080fd5b503573ffffffffffffffffffffffffffffffffffffffff1661209e565b6104016004803603602081101561081b57600080fd5b503573ffffffffffffffffffffffffffffffffffffffff166120b3565b6104016004803603602081101561084e57600080fd5b503573ffffffffffffffffffffffffffffffffffffffff166120c5565b61039d6120d7565b61039d6004803603602081101561088957600080fd5b50356120f3565b610401600480360360608110156108a657600080fd5b5080359073ffffffffffffffffffffffffffffffffffffffff6020820135169060400135612103565b610401600480360360208110156108e557600080fd5b503573ffffffffffffffffffffffffffffffffffffffff1661246f565b6104016004803603602081101561091857600080fd5b503573ffffffffffffffffffffffffffffffffffffffff16612481565b61039d6004803603602081101561094b57600080fd5b5035612493565b6104016124a3565b61037e6004803603604081101561097057600080fd5b508035906020013573ffffffffffffffffffffffffffffffffffffffff166124c7565b610487600480360360208110156109a957600080fd5b503573ffffffffffffffffffffffffffffffffffffffff166126d9565b610487600480360360408110156109dc57600080fd5b50803560ff16906020013573ffffffffffffffffffffffffffffffffffffffff166126ee565b61048760048036036020811015610a1857600080fd5b503573ffffffffffffffffffffffffffffffffffffffff16612c01565b61048760048036036020811015610a4b57600080fd5b503573ffffffffffffffffffffffffffffffffffffffff16612c16565b61037e60048036036020811015610a7e57600080fd5b5035612c2b565b61040160048036036020811015610a9b57600080fd5b503573ffffffffffffffffffffffffffffffffffffffff16612e08565b61048760048036036060811015610ace57600080fd5b5060ff8135169073ffffffffffffffffffffffffffffffffffffffff60208201358116916040013516612e1a565b610401613adb565b61039d60048036036020811015610b1a57600080fd5b5035613ae1565b61040160048036036020811015610b3757600080fd5b503573ffffffffffffffffffffffffffffffffffffffff16613af1565b73ffffffffffffffffffffffffffffffffffffffff811660009081526003602052604090205460ff1680610bad575073ffffffffffffffffffffffffffffffffffffffff81166000908152600c602052604090205460ff165b610c1857604080517f08c379a000000000000000000000000000000000000000000000000000000000815260206004820152600c60248201527f4e6f742061636365707465640000000000000000000000000000000000000000604482015290519081900360640190fd5b3360009081526009602052604090205460ff161515600114610c9b57604080517f08c379a000000000000000000000000000000000000000000000000000000000815260206004820152600c60248201527f4e6f7420617070726f7665640000000000000000000000000000000000000000604482015290519081900360640190fd5b6000610ca78284611653565b90507f000000000000000000000000000000000000000000000000000000000000000073ffffffffffffffffffffffffffffffffffffffff166379cc679033836040518363ffffffff1660e01b8152600401808373ffffffffffffffffffffffffffffffffffffffff16815260200182815260200192505050600060405180830381600087803b158015610d3a57600080fd5b505af1158015610d4e573d6000803e3d6000fd5b5050602154610d609250905082613b03565b60218190556040517f93bb8edd35984706eee1b92541281f7f62d33c01c5b2ec0929a113603bd21d6690600090a2610daf73ffffffffffffffffffffffffffffffffffffffff83163385613b45565b6040805184815260208101839052815173ffffffffffffffffffffffffffffffffffffffff8516927fdf273cb619d95419a9cd0ec88123a0538c85064229baa6363788f743fff90deb928290030190a2505050565b60128181548110610e1457600080fd5b60009182526020909120015473ffffffffffffffffffffffffffffffffffffffff16905081565b60005473ffffffffffffffffffffffffffffffffffffffff163314610ec157604080517f08c379a000000000000000000000000000000000000000000000000000000000815260206004820181905260248201527f4f776e61626c653a2063616c6c6572206973206e6f7420746865206f776e6572604482015290519081900360640190fd5b6000805460405173ffffffffffffffffffffffffffffffffffffffff909116907fea8258f2d9ddb679928cf34b78cf645b7feda9acc828e4dd82d014eaae270eba908390a3600080547fffffffffffffffffffffffff0000000000000000000000000000000000000000169055565b601b6020526000908152604090205481565b73ffffffffffffffffffffffffffffffffffffffff82166000908152600c602052604090205460ff1615610ff3573360009081526016602052604090205460ff16610fee57604080517f08c379a000000000000000000000000000000000000000000000000000000000815260206004820152600c60248201527f4e6f7420617070726f7665640000000000000000000000000000000000000000604482015290519081900360640190fd5b611071565b3360009081526013602052604090205460ff1661107157604080517f08c379a000000000000000000000000000000000000000000000000000000000815260206004820152600c60248201527f4e6f7420617070726f7665640000000000000000000000000000000000000000604482015290519081900360640190fd5b600061107d8383611653565b90506110876111a2565b8111156110f557604080517f08c379a000000000000000000000000000000000000000000000000000000000815260206004820152601560248201527f496e73756666696369656e742072657365727665730000000000000000000000604482015290519081900360640190fd5b6021546111029082613b03565b60218190556040517f93bb8edd35984706eee1b92541281f7f62d33c01c5b2ec0929a113603bd21d6690600090a261115173ffffffffffffffffffffffffffffffffffffffff84163384613b45565b60408051838152905173ffffffffffffffffffffffffffffffffffffffff8516917f2bb2640731848fe9820ba48dbc978c1fc9bbd5f11b948bfab05b7dee3378fd80919081900360200190a2505050565b600061124e6112456022547f000000000000000000000000000000000000000000000000000000000000000073ffffffffffffffffffffffffffffffffffffffff166318160ddd6040518163ffffffff1660e01b815260040160206040518083038186803b15801561121357600080fd5b505afa158015611227573d6000803e3d6000fd5b505050506040513d602081101561123d57600080fd5b505190613b03565b60215490613b03565b905090565b60066020526000908152604090205460ff1681565b3360009081526019602052604090205460ff166112e657604080517f08c379a000000000000000000000000000000000000000000000000000000000815260206004820152600c60248201527f4e6f7420617070726f7665640000000000000000000000000000000000000000604482015290519081900360640190fd5b73ffffffffffffffffffffffffffffffffffffffff811660009081526003602052604090205460ff1661137a57604080517f08c379a000000000000000000000000000000000000000000000000000000000815260206004820152600c60248201527f4e6f742061636365707465640000000000000000000000000000000000000000604482015290519081900360640190fd5b60006113868284611653565b601f54604080517f70a08231000000000000000000000000000000000000000000000000000000008152336004820152905192935060009273ffffffffffffffffffffffffffffffffffffffff909216916370a0823191602480820192602092909190829003018186803b1580156113fd57600080fd5b505afa158015611411573d6000803e3d6000fd5b505050506040513d602081101561142757600080fd5b5051336000908152601b602052604081205491925090611448908390613b03565b9050808311156114b957604080517f08c379a000000000000000000000000000000000000000000000000000000000815260206004820152601260248201527f457863656564732064656274206c696d69740000000000000000000000000000604482015290519081900360640190fd5b336000908152601b60205260409020546114d39084613bd7565b336000908152601b60205260409020556022546114f09084613bd7565b6022556021546115009084613b03565b60218190556040517f93bb8edd35984706eee1b92541281f7f62d33c01c5b2ec0929a113603bd21d6690600090a2604080517fa9059cbb00000000000000000000000000000000000000000000000000000000815233600482015260248101879052905173ffffffffffffffffffffffffffffffffffffffff86169163a9059cbb9160448083019260209291908290030181600087803b1580156115a357600080fd5b505af11580156115b7573d6000803e3d6000fd5b505050506040513d60208110156115cd57600080fd5b50506040805186815260208101859052815173ffffffffffffffffffffffffffffffffffffffff87169233927f7e1a939bed137a819b5d2979822c67f877689f7a863d5e4cb57cdca97b2977d6929081900390910190a35050505050565b60116020526000908152604090205473ffffffffffffffffffffffffffffffffffffffff1681565b73ffffffffffffffffffffffffffffffffffffffff821660009081526003602052604081205460ff16156117d0576117c98373ffffffffffffffffffffffffffffffffffffffff1663313ce5676040518163ffffffff1660e01b815260040160206040518083038186803b1580156116ca57600080fd5b505afa1580156116de573d6000803e3d6000fd5b505050506040513d60208110156116f457600080fd5b5051604080517f313ce567000000000000000000000000000000000000000000000000000000008152905160ff909216600a0a916117c39173ffffffffffffffffffffffffffffffffffffffff7f0000000000000000000000000000000000000000000000000000000000000000169163313ce56791600480820192602092909190829003018186803b15801561178a57600080fd5b505afa15801561179e573d6000803e3d6000fd5b505050506040513d60208110156117b457600080fd5b5051859060ff16600a0a613c4b565b90613cbe565b90506118b4565b73ffffffffffffffffffffffffffffffffffffffff83166000908152600c602052604090205460ff16156118b45773ffffffffffffffffffffffffffffffffffffffff8084166000818152601160209081526040918290205482517f4249719f00000000000000000000000000000000000000000000000000000000815260048101949094526024840187905291519190931692634249719f9260448082019391829003018186803b15801561188557600080fd5b505afa158015611899573d6000803e3d6000fd5b505050506040513d60208110156118af57600080fd5b505190505b92915050565b60005473ffffffffffffffffffffffffffffffffffffffff16331461194057604080517f08c379a000000000000000000000000000000000000000000000000000000000815260206004820181905260248201527f4f776e61626c653a2063616c6c6572206973206e6f7420746865206f776e6572604482015290519081900360640190fd5b6000805b600254811015611a4b57611a41611a3a6002838154811061196157fe5b6000918252602090912001546002805473ffffffffffffffffffffffffffffffffffffffff909216918590811061199457fe5b60009182526020918290200154604080517f70a08231000000000000000000000000000000000000000000000000000000008152306004820152905173ffffffffffffffffffffffffffffffffffffffff909216926370a0823192602480840193829003018186803b158015611a0957600080fd5b505afa158015611a1d573d6000803e3d6000fd5b505050506040513d6020811015611a3357600080fd5b5051611653565b8390613bd7565b9150600101611944565b5060005b600b54811015611aa957611a9f611a3a600b8381548110611a6c57fe5b600091825260209091200154600b805473ffffffffffffffffffffffffffffffffffffffff909216918590811061199457fe5b9150600101611a4f565b50602181905560405181907f93bb8edd35984706eee1b92541281f7f62d33c01c5b2ec0929a113603bd21d6690600090a260405181907fec691f09f6924b27932253f85caf99bacc30360cc0e50a1cc4d2acc24601446690600090a250565b60088181548110610e1457600080fd5b60005473ffffffffffffffffffffffffffffffffffffffff163314611b9e57604080517f08c379a000000000000000000000000000000000000000000000000000000000815260206004820181905260248201527f4f776e61626c653a2063616c6c6572206973206e6f7420746865206f776e6572604482015290519081900360640190fd5b73ffffffffffffffffffffffffffffffffffffffff8116611c0a576040517f08c379a000000000000000000000000000000000000000000000000000000000815260040180806020018281038252602681526020018061435b6026913960400191505060405180910390fd5b6000805460405173ffffffffffffffffffffffffffffffffffffffff808516939216917fea8258f2d9ddb679928cf34b78cf645b7feda9acc828e4dd82d014eaae270eba91a3600180547fffffffffffffffffffffffff00000000000000000000000000000000000000001673ffffffffffffffffffffffffffffffffffffffff92909216919091179055565b60005473ffffffffffffffffffffffffffffffffffffffff1690565b601d6020526000908152604090205460ff1681565b60015473ffffffffffffffffffffffffffffffffffffffff163314611d38576040517f08c379a00000000000000000000000000000000000000000000000000000000081526004018080602001828103825260228152602001806143816022913960400191505060405180910390fd5b6001546000805460405173ffffffffffffffffffffffffffffffffffffffff93841693909116917faa151555690c956fc3ea32f106bb9f119b5237a061eaa8557cff3e51e3792c8d91a3600154600080547fffffffffffffffffffffffff00000000000000000000000000000000000000001673ffffffffffffffffffffffffffffffffffffffff909216919091179055565b60036020526000908152604090205460ff1681565b336000908152601d602052604090205460ff16611e5e57604080517f08c379a000000000000000000000000000000000000000000000000000000000815260206004820152600c60248201527f4e6f7420617070726f7665640000000000000000000000000000000000000000604482015290519081900360640190fd5b611e666111a2565b811115611ed457604080517f08c379a000000000000000000000000000000000000000000000000000000000815260206004820152601560248201527f496e73756666696369656e742072657365727665730000000000000000000000604482015290519081900360640190fd5b7f000000000000000000000000000000000000000000000000000000000000000073ffffffffffffffffffffffffffffffffffffffff166340c10f1983836040518363ffffffff1660e01b8152600401808373ffffffffffffffffffffffffffffffffffffffff16815260200182815260200192505050600060405180830381600087803b158015611f6557600080fd5b505af1158015611f79573d6000803e3d6000fd5b505060408051848152905173ffffffffffffffffffffffffffffffffffffffff861693503392507ffa8ccab40e7da8146c2304cd0950334fd30a6ba093abe86261aa13911fed849c9181900360200190a35050565b60058181548110610e1457600080fd5b60158181548110610e1457600080fd5b60205481565b60046020526000908152604090205481565b7f000000000000000000000000000000000000000000000000000000000000000081565b60188181548110610e1457600080fd5b60096020526000908152604090205460ff1681565b600d6020526000908152604090205481565b600e8181548110610e1457600080fd5b60215481565b60076020526000908152604090205481565b600f6020526000908152604090205460ff1681565b600c6020526000908152604090205460ff1681565b60176020526000908152604090205481565b60146020526000908152604090205481565b601f5473ffffffffffffffffffffffffffffffffffffffff1681565b601c8181548110610e1457600080fd5b73ffffffffffffffffffffffffffffffffffffffff821660009081526003602052604081205460ff168061215c575073ffffffffffffffffffffffffffffffffffffffff83166000908152600c602052604090205460ff165b6121c757604080517f08c379a000000000000000000000000000000000000000000000000000000000815260206004820152600c60248201527f4e6f742061636365707465640000000000000000000000000000000000000000604482015290519081900360640190fd5b6121e973ffffffffffffffffffffffffffffffffffffffff8416333087613d00565b73ffffffffffffffffffffffffffffffffffffffff831660009081526003602052604090205460ff161561229a573360009081526006602052604090205460ff1661229557604080517f08c379a000000000000000000000000000000000000000000000000000000000815260206004820152600c60248201527f4e6f7420617070726f7665640000000000000000000000000000000000000000604482015290519081900360640190fd5b612318565b336000908152600f602052604090205460ff1661231857604080517f08c379a000000000000000000000000000000000000000000000000000000000815260206004820152600c60248201527f4e6f7420617070726f7665640000000000000000000000000000000000000000604482015290519081900360640190fd5b60006123248486611653565b90506123308184613b03565b91507f000000000000000000000000000000000000000000000000000000000000000073ffffffffffffffffffffffffffffffffffffffff166340c10f1933846040518363ffffffff1660e01b8152600401808373ffffffffffffffffffffffffffffffffffffffff16815260200182815260200192505050600060405180830381600087803b1580156123c357600080fd5b505af11580156123d7573d6000803e3d6000fd5b50506021546123e99250905082613bd7565b60218190556040517f93bb8edd35984706eee1b92541281f7f62d33c01c5b2ec0929a113603bd21d6690600090a26040805186815260208101839052815173ffffffffffffffffffffffffffffffffffffffff8716927f90890809c654f11d6e72a28fa60149770a0d11ec6c92319d6ceb2bb0a4ea1a15928290030190a2509392505050565b600a6020526000908152604090205481565b601a6020526000908152604090205481565b60028181548110610e1457600080fd5b7f000000000000000000000000000000000000000000000000000000000000000081565b3360009081526019602052604090205460ff1661254557604080517f08c379a000000000000000000000000000000000000000000000000000000000815260206004820152600c60248201527f4e6f7420617070726f7665640000000000000000000000000000000000000000604482015290519081900360640190fd5b73ffffffffffffffffffffffffffffffffffffffff811660009081526003602052604090205460ff166125d957604080517f08c379a000000000000000000000000000000000000000000000000000000000815260206004820152600c60248201527f4e6f742061636365707465640000000000000000000000000000000000000000604482015290519081900360640190fd5b6125fb73ffffffffffffffffffffffffffffffffffffffff8216333085613d00565b60006126078284611653565b336000908152601b60205260409020549091506126249082613b03565b336000908152601b60205260409020556022546126419082613b03565b6022556021546126519082613bd7565b60218190556040517f93bb8edd35984706eee1b92541281f7f62d33c01c5b2ec0929a113603bd21d6690600090a26040805184815260208101839052815173ffffffffffffffffffffffffffffffffffffffff85169233927fc6d98eecfc9c78ab62c89a82950079b54874749f1f6f24090f7acc758bc2f309929081900390910190a3505050565b60166020526000908152604090205460ff1681565b6000805473ffffffffffffffffffffffffffffffffffffffff16331461277557604080517f08c379a000000000000000000000000000000000000000000000000000000000815260206004820181905260248201527f4f776e61626c653a2063616c6c6572206973206e6f7420746865206f776e6572604482015290519081900360640190fd5b73ffffffffffffffffffffffffffffffffffffffff821661279557600080fd5b60008360098111156127a357fe5b14156127fe576127d3437f0000000000000000000000000000000000000000000000000000000000000000613bd7565b73ffffffffffffffffffffffffffffffffffffffff8316600090815260076020526040902055612ba3565b600183600981111561280c57fe5b14156128675761283c437f0000000000000000000000000000000000000000000000000000000000000000613bd7565b73ffffffffffffffffffffffffffffffffffffffff83166000908152600a6020526040902055612ba3565b600283600981111561287557fe5b14156128d0576128a5437f0000000000000000000000000000000000000000000000000000000000000000613bd7565b73ffffffffffffffffffffffffffffffffffffffff8316600090815260046020526040902055612ba3565b60038360098111156128de57fe5b1415612944576129196129127f00000000000000000000000000000000000000000000000000000000000000006002613c4b565b4390613bd7565b73ffffffffffffffffffffffffffffffffffffffff8316600090815260146020526040902055612ba3565b600483600981111561295257fe5b14156129ad57612982437f0000000000000000000000000000000000000000000000000000000000000000613bd7565b73ffffffffffffffffffffffffffffffffffffffff8316600090815260106020526040902055612ba3565b60058360098111156129bb57fe5b1415612a16576129eb437f0000000000000000000000000000000000000000000000000000000000000000613bd7565b73ffffffffffffffffffffffffffffffffffffffff83166000908152600d6020526040902055612ba3565b6006836009811115612a2457fe5b1415612a8357612a586129127f00000000000000000000000000000000000000000000000000000000000000006002613c4b565b73ffffffffffffffffffffffffffffffffffffffff8316600090815260176020526040902055612ba3565b6007836009811115612a9157fe5b1415612aec57612ac1437f0000000000000000000000000000000000000000000000000000000000000000613bd7565b73ffffffffffffffffffffffffffffffffffffffff83166000908152601a6020526040902055612ba3565b6008836009811115612afa57fe5b1415612b5557612b2a437f0000000000000000000000000000000000000000000000000000000000000000613bd7565b73ffffffffffffffffffffffffffffffffffffffff83166000908152601e6020526040902055612ba3565b6009836009811115612b6357fe5b1415612b9b57612b93437f0000000000000000000000000000000000000000000000000000000000000000613bd7565b602055612ba3565b5060006118b4565b826009811115612baf57fe5b6040805173ffffffffffffffffffffffffffffffffffffffff8516815290517f0e4f2c4b5bc209d509bc3d49348c787fefadc66a79351b470599ac0f5be52eaf9181900360200190a250600192915050565b60136020526000908152604090205460ff1681565b60196020526000908152604090205460ff1681565b3360009081526019602052604090205460ff16612ca957604080517f08c379a000000000000000000000000000000000000000000000000000000000815260206004820152600c60248201527f4e6f7420617070726f7665640000000000000000000000000000000000000000604482015290519081900360640190fd5b604080517f79cc679000000000000000000000000000000000000000000000000000000000815233600482015260248101839052905173ffffffffffffffffffffffffffffffffffffffff7f000000000000000000000000000000000000000000000000000000000000000016916379cc679091604480830192600092919082900301818387803b158015612d3d57600080fd5b505af1158015612d51573d6000803e3d6000fd5b5050336000908152601b6020526040902054612d709250905082613b03565b336000908152601b6020526040902055602254612d8d9082613b03565b6022556040805182815260208101839052815173ffffffffffffffffffffffffffffffffffffffff7f0000000000000000000000000000000000000000000000000000000000000000169233927fc6d98eecfc9c78ab62c89a82950079b54874749f1f6f24090f7acc758bc2f309929081900390910190a350565b601e6020526000908152604090205481565b6000805473ffffffffffffffffffffffffffffffffffffffff163314612ea157604080517f08c379a000000000000000000000000000000000000000000000000000000000815260206004820181905260248201527f4f776e61626c653a2063616c6c6572206973206e6f7420746865206f776e6572604482015290519081900360640190fd5b73ffffffffffffffffffffffffffffffffffffffff8316612ec157600080fd5b600080856009811115612ed057fe5b1415612fe957612ee36007600686613d9b565b15612f8e5773ffffffffffffffffffffffffffffffffffffffff8416600090815260076020526040812055612f19600585613eff565b612f8e57600580546001810182556000919091527f036b6384b5eca791c62761152d0c79bb0604c104a5fb6f4eb0703f3154bb3db00180547fffffffffffffffffffffffff00000000000000000000000000000000000000001673ffffffffffffffffffffffffffffffffffffffff86161790555b5073ffffffffffffffffffffffffffffffffffffffff83166000908152600660205260409020805460ff8116157fffffffffffffffffffffffffffffffffffffffffffffffffffffffffffffff009091168117909155613a70565b6001856009811115612ff757fe5b14156131105761300a600a600986613d9b565b156130b55773ffffffffffffffffffffffffffffffffffffffff84166000908152600a6020526040812055613040600885613eff565b6130b557600880546001810182556000919091527ff3f7a9fe364faab93b216da50a3214154f22a0a2b415b23a84c8169e8b636ee30180547fffffffffffffffffffffffff00000000000000000000000000000000000000001673ffffffffffffffffffffffffffffffffffffffff86161790555b5073ffffffffffffffffffffffffffffffffffffffff83166000908152600960205260409020805460ff8116157fffffffffffffffffffffffffffffffffffffffffffffffffffffffffffffff009091168117909155613a70565b600285600981111561311e57fe5b1415613237576131316004600386613d9b565b156131dc5773ffffffffffffffffffffffffffffffffffffffff8416600090815260046020526040812055613167600285613eff565b6131dc57600280546001810182556000919091527f405787fa12a823e0f2b7631cc41b3ba8828b3321ca811111fa75cd3aa3bb5ace0180547fffffffffffffffffffffffff00000000000000000000000000000000000000001673ffffffffffffffffffffffffffffffffffffffff86161790555b5073ffffffffffffffffffffffffffffffffffffffff83166000908152600360205260409020805460ff8116157fffffffffffffffffffffffffffffffffffffffffffffffffffffffffffffff009091168117909155613a70565b600385600981111561324557fe5b14156133b3576132586014601386613d9b565b1561335857601280546001810182557fbb8a6a4669ba250d26cd7a459eca9d215f8307e33aebe50379bc5a3617ec34440180547fffffffffffffffffffffffff00000000000000000000000000000000000000001673ffffffffffffffffffffffffffffffffffffffff87169081179091556000908152601460205260408120556132e39085613eff565b61335857601280546001810182556000919091527fbb8a6a4669ba250d26cd7a459eca9d215f8307e33aebe50379bc5a3617ec34440180547fffffffffffffffffffffffff00000000000000000000000000000000000000001673ffffffffffffffffffffffffffffffffffffffff86161790555b5073ffffffffffffffffffffffffffffffffffffffff83166000908152601360205260409020805460ff8116157fffffffffffffffffffffffffffffffffffffffffffffffffffffffffffffff009091168117909155613a70565b60048560098111156133c157fe5b141561352f576133d46010600f86613d9b565b156134d457600e80546001810182557fbb7b4a454dc3493923482f07822329ed19e8244eff582cc204f8554c3620c3fd0180547fffffffffffffffffffffffff00000000000000000000000000000000000000001673ffffffffffffffffffffffffffffffffffffffff871690811790915560009081526010602052604081205561345f9085613eff565b6134d457600e80546001810182556000919091527fbb7b4a454dc3493923482f07822329ed19e8244eff582cc204f8554c3620c3fd0180547fffffffffffffffffffffffff00000000000000000000000000000000000000001673ffffffffffffffffffffffffffffffffffffffff86161790555b5073ffffffffffffffffffffffffffffffffffffffff83166000908152600f60205260409020805460ff8116157fffffffffffffffffffffffffffffffffffffffffffffffffffffffffffffff009091168117909155613a70565b600585600981111561353d57fe5b141561369057613550600d600c86613d9b565b156135fb5773ffffffffffffffffffffffffffffffffffffffff84166000908152600d6020526040812055613586600b85613eff565b6135fb57600b80546001810182556000919091527f0175b7a638427703f0dbe7bb9bbf987a2551717b34e79f33b5b1008d1fa01db90180547fffffffffffffffffffffffff00000000000000000000000000000000000000001673ffffffffffffffffffffffffffffffffffffffff86161790555b5073ffffffffffffffffffffffffffffffffffffffff8381166000908152600c60209081526040808320805460ff8116157fffffffffffffffffffffffffffffffffffffffffffffffffffffffffffffff009091168117909155601190925290912080547fffffffffffffffffffffffff00000000000000000000000000000000000000001692851692909217909155613a70565b600685600981111561369e57fe5b14156137b7576136b16017601686613d9b565b1561375c5773ffffffffffffffffffffffffffffffffffffffff84166000908152601760205260408120556136e7601585613eff565b61375c57601580546001810182556000919091527f55f448fdea98c4d29eb340757ef0a66cd03dbb9538908a6a81d96026b71ec4750180547fffffffffffffffffffffffff00000000000000000000000000000000000000001673ffffffffffffffffffffffffffffffffffffffff86161790555b5073ffffffffffffffffffffffffffffffffffffffff83166000908152601660205260409020805460ff8116157fffffffffffffffffffffffffffffffffffffffffffffffffffffffffffffff009091168117909155613a70565b60078560098111156137c557fe5b14156138de576137d8601a601986613d9b565b156138835773ffffffffffffffffffffffffffffffffffffffff84166000908152601a602052604081205561380e601885613eff565b61388357601880546001810182556000919091527fb13d2d76d1f4b7be834882e410b3e3a8afaf69f83600ae24db354391d2378d2e0180547fffffffffffffffffffffffff00000000000000000000000000000000000000001673ffffffffffffffffffffffffffffffffffffffff86161790555b5073ffffffffffffffffffffffffffffffffffffffff83166000908152601960205260409020805460ff8116157fffffffffffffffffffffffffffffffffffffffffffffffffffffffffffffff009091168117909155613a70565b60088560098111156138ec57fe5b1415613a05576138ff601e601d86613d9b565b156139aa5773ffffffffffffffffffffffffffffffffffffffff84166000908152601e6020526040812055613935601c85613eff565b6139aa57601c80546001810182556000919091527f0e4562a10381dec21b205ed72637e6b1b523bdd0e4d4d50af5cd23dd4500a2110180547fffffffffffffffffffffffff00000000000000000000000000000000000000001673ffffffffffffffffffffffffffffffffffffffff86161790555b5073ffffffffffffffffffffffffffffffffffffffff83166000908152601d60205260409020805460ff8116157fffffffffffffffffffffffffffffffffffffffffffffffffffffffffffffff009091168117909155613a70565b6009856009811115613a1357fe5b1415613a6657506000602055601f80547fffffffffffffffffffffffff00000000000000000000000000000000000000001673ffffffffffffffffffffffffffffffffffffffff85161790556001613a70565b6000915050613ad4565b846009811115613a7c57fe5b6040805173ffffffffffffffffffffffffffffffffffffffff87168152831515602082015281517f0dcacb7e392f3d6a216ed2660e3dcfd40b7793d33591db2ba185a6b8e44fc477929181900390910190a260019150505b9392505050565b60225481565b600b8181548110610e1457600080fd5b60106020526000908152604090205481565b6000613ad483836040518060400160405280601e81526020017f536166654d6174683a207375627472616374696f6e206f766572666c6f770000815250613f69565b6040805173ffffffffffffffffffffffffffffffffffffffff8416602482015260448082018490528251808303909101815260649091019091526020810180517bffffffffffffffffffffffffffffffffffffffffffffffffffffffff167fa9059cbb00000000000000000000000000000000000000000000000000000000179052613bd290849061401a565b505050565b600082820183811015613ad457604080517f08c379a000000000000000000000000000000000000000000000000000000000815260206004820152601b60248201527f536166654d6174683a206164646974696f6e206f766572666c6f770000000000604482015290519081900360640190fd5b600082613c5a575060006118b4565b82820282848281613c6757fe5b0414613ad4576040517f08c379a00000000000000000000000000000000000000000000000000000000081526004018080602001828103825260218152602001806143a36021913960400191505060405180910390fd5b6000613ad483836040518060400160405280601a81526020017f536166654d6174683a206469766973696f6e206279207a65726f0000000000008152506140f2565b6040805173ffffffffffffffffffffffffffffffffffffffff80861660248301528416604482015260648082018490528251808303909101815260849091019091526020810180517bffffffffffffffffffffffffffffffffffffffffffffffffffffffff167f23b872dd00000000000000000000000000000000000000000000000000000000179052613d9590859061401a565b50505050565b73ffffffffffffffffffffffffffffffffffffffff811660009081526020839052604081205460ff16613ef55773ffffffffffffffffffffffffffffffffffffffff8216600090815260208590526040902054613e5957604080517f08c379a000000000000000000000000000000000000000000000000000000000815260206004820152600a60248201527f4d75737420717565756500000000000000000000000000000000000000000000604482015290519081900360640190fd5b73ffffffffffffffffffffffffffffffffffffffff8216600090815260208590526040902054431015613eed57604080517f08c379a000000000000000000000000000000000000000000000000000000000815260206004820152601160248201527f5175657565206e6f742065787069726564000000000000000000000000000000604482015290519081900360640190fd5b506001613ad4565b5060009392505050565b6000805b8354811015613ef5578273ffffffffffffffffffffffffffffffffffffffff16848281548110613f2f57fe5b60009182526020909120015473ffffffffffffffffffffffffffffffffffffffff161415613f615760019150506118b4565b600101613f03565b60008184841115614012576040517f08c379a00000000000000000000000000000000000000000000000000000000081526004018080602001828103825283818151815260200191508051906020019080838360005b83811015613fd7578181015183820152602001613fbf565b50505050905090810190601f1680156140045780820380516001836020036101000a031916815260200191505b509250505060405180910390fd5b505050900390565b606061407c826040518060400160405280602081526020017f5361666545524332303a206c6f772d6c6576656c2063616c6c206661696c65648152508573ffffffffffffffffffffffffffffffffffffffff166141719092919063ffffffff16565b805190915015613bd25780806020019051602081101561409b57600080fd5b5051613bd2576040517f08c379a000000000000000000000000000000000000000000000000000000000815260040180806020018281038252602a8152602001806143c4602a913960400191505060405180910390fd5b6000818361415b576040517f08c379a0000000000000000000000000000000000000000000000000000000008152602060048201818152835160248401528351909283926044909101919085019080838360008315613fd7578181015183820152602001613fbf565b50600083858161416757fe5b0495945050505050565b60606141808484600085614188565b949350505050565b606061419385614354565b6141fe57604080517f08c379a000000000000000000000000000000000000000000000000000000000815260206004820152601d60248201527f416464726573733a2063616c6c20746f206e6f6e2d636f6e7472616374000000604482015290519081900360640190fd5b600060608673ffffffffffffffffffffffffffffffffffffffff1685876040518082805190602001908083835b6020831061426857805182527fffffffffffffffffffffffffffffffffffffffffffffffffffffffffffffffe0909201916020918201910161422b565b6001836020036101000a03801982511681845116808217855250505050505090500191505060006040518083038185875af1925050503d80600081146142ca576040519150601f19603f3d011682016040523d82523d6000602084013e6142cf565b606091505b509150915081156142e35791506141809050565b8051156142f35780518082602001fd5b6040517f08c379a0000000000000000000000000000000000000000000000000000000008152602060048201818152865160248401528651879391928392604401919085019080838360008315613fd7578181015183820152602001613fbf565b3b15159056fe4f776e61626c653a206e6577206f776e657220697320746865207a65726f20616464726573734f776e61626c653a206d757374206265206e6577206f776e657220746f2070756c6c536166654d6174683a206d756c7469706c69636174696f6e206f766572666c6f775361666545524332303a204552433230206f7065726174696f6e20646964206e6f742073756363656564a2646970667358221220e4118698ac289c1fbfe9789beb386cb7e051c00583f607e21664602f2154a8f064736f6c63430007050033",
  "linkReferences": {},
  "deployedLinkReferences": {}
}